{
  "contractName": "LoadsCalc",
  "abi": [
    {
      "inputs": [],
      "payable": false,
      "stateMutability": "nonpayable",
      "type": "constructor"
    },
    {
      "constant": true,
      "inputs": [],
      "name": "getAppNames",
      "outputs": [
        {
          "internalType": "string[]",
          "name": "",
          "type": "string[]"
        }
      ],
      "payable": false,
      "stateMutability": "view",
      "type": "function"
    },
    {
      "constant": true,
      "inputs": [
        {
          "components": [
            {
              "internalType": "string",
              "name": "name",
              "type": "string"
            },
            {
              "internalType": "uint256",
              "name": "qty",
              "type": "uint256"
            }
          ],
          "internalType": "struct LoadsCalc.AppQty[]",
          "name": "_appliances",
          "type": "tuple[]"
        }
      ],
      "name": "calcAppLoads",
      "outputs": [
        {
          "internalType": "uint256",
          "name": "",
          "type": "uint256"
        }
      ],
      "payable": false,
      "stateMutability": "view",
      "type": "function"
    },
    {
      "constant": false,
      "inputs": [
        {
          "internalType": "string",
          "name": "_name",
          "type": "string"
        },
        {
          "internalType": "uint256",
          "name": "_load",
          "type": "uint256"
        }
      ],
      "name": "addAppliance",
      "outputs": [
        {
          "internalType": "bool",
          "name": "",
          "type": "bool"
        }
      ],
      "payable": false,
      "stateMutability": "nonpayable",
      "type": "function"
    }
  ],
  "bytecode": "0x60806040523480156200001157600080fd5b50600060405180604001604052806040518060400160405280600e81526020017f456c6563747269632053746f766500000000000000000000000000000000000081525081526020016109c4815250908060018154018082558091505090600182039060005260206000209060020201600090919290919091506000820151816000019080519060200190620000a992919062000879565b5060208201518160010155505050600060405180604001604052806040518060400160405280600981526020017f4d6963726f77617665000000000000000000000000000000000000000000000081525081526020016109c48152509080600181540180825580915050906001820390600052602060002090600202016000909192909190915060008201518160000190805190602001906200014e92919062000879565b5060208201518160010155505050600060405180604001604052806040518060400160405280600681526020017f426f696c6572000000000000000000000000000000000000000000000000000081525081526020016109c4815250908060018154018082558091505090600182039060005260206000209060020201600090919290919091506000820151816000019080519060200190620001f392919062000879565b5060208201518160010155505050600060405180604001604052806040518060400160405280601c81526020017f456c656374726963204865617465722033302d3530206c69746572730000000081525081526020016109c48152509080600181540180825580915050906001820390600052602060002090600202016000909192909190915060008201518160000190805190602001906200029892919062000879565b5060208201518160010155505050600060405180604001604052806040518060400160405280601c81526020017f456c656374726963204865617465722031302d3235206c69746572730000000081525081526020016105dc8152509080600181540180825580915050906001820390600052602060002090600202016000909192909190915060008201518160000190805190602001906200033d92919062000879565b5060208201518160010155505050600060405180604001604052806040518060400160405280600a81526020017f446973687761736865720000000000000000000000000000000000000000000081525081526020016107d0815250908060018154018082558091505090600182039060005260206000209060020201600090919290919091506000820151816000019080519060200190620003e292919062000879565b5060208201518160010155505050600060405180604001604052806040518060400160405280600f81526020017f4d696e692044697368776173686572000000000000000000000000000000000081525081526020016103e88152509080600181540180825580915050906001820390600052602060002090600202016000909192909190915060008201518160000190805190602001906200048792919062000879565b5060208201518160010155505050600060405180604001604052806040518060400160405280601e81526020017f46756c6c204175746f6d617469632057617368696e67204d616368696e65000081525081526020016109c48152509080600181540180825580915050906001820390600052602060002090600202016000909192909190915060008201518160000190805190602001906200052c92919062000879565b5060208201518160010155505050600060405180604001604052806040518060400160405280601e81526020017f48616c66204175746f6d617469632057617368696e67204d616368696e65000081525081526020016104e2815250908060018154018082558091505090600182039060005260206000209060020201600090919290919091506000820151816000019080519060200190620005d192919062000879565b5060208201518160010155505050600060405180604001604052806040518060400160405280600381526020017f46616e000000000000000000000000000000000000000000000000000000000081525081526020016101f48152509080600181540180825580915050906001820390600052602060002090600202016000909192909190915060008201518160000190805190602001906200067692919062000879565b5060208201518160010155505050600060405180604001604052806040518060400160405280601581526020017f526566726967657261746f72202b31342066656574000000000000000000000081525081526020016107d08152509080600181540180825580915050906001820390600052602060002090600202016000909192909190915060008201518160000190805190602001906200071b92919062000879565b5060208201518160010155505050600060405180604001604052806040518060400160405280601781526020017f526566726967657261746f722031322d3134206665657400000000000000000081525081526020016105dc815250908060018154018082558091505090600182039060005260206000209060020201600090919290919091506000820151816000019080519060200190620007c092919062000879565b5060208201518160010155505050600060405180604001604052806040518060400160405280601681526020017f526566726967657261746f7220382d313020666565740000000000000000000081525081526020016103e88152509080600181540180825580915050906001820390600052602060002090600202016000909192909190915060008201518160000190805190602001906200086592919062000879565b506020820151816001015550505062000928565b828054600181600116156101000203166002900490600052602060002090601f016020900481019282601f10620008bc57805160ff1916838001178555620008ed565b82800160010185558215620008ed579182015b82811115620008ec578251825591602001919060010190620008cf565b5b509050620008fc919062000900565b5090565b6200092591905b808211156200092157600081600090555060010162000907565b5090565b90565b610b8980620009386000396000f3fe608060405234801561001057600080fd5b50600436106100415760003560e01c8063083c21e614610046578063d645857314610064578063f46d986c14610094575b600080fd5b61004e6100c4565b60405161005b9190610941565b60405180910390f35b61007e60048036036100799190810190610697565b6101f9565b60405161008b919061097e565b60405180910390f35b6100ae60048036036100a991908101906106d8565b6102dd565b6040516100bb9190610963565b60405180910390f35b60608060008054905060405190808252806020026020018201604052801561010057816020015b60608152602001906001900390816100eb5790505b50905060008090505b6000805490508110156101f1576000818154811061012357fe5b90600052602060002090600202016000018054600181600116156101000203166002900480601f0160208091040260200160405190810160405280929190818152602001828054600181600116156101000203166002900480156101c85780601f1061019d576101008083540402835291602001916101c8565b820191906000526020600020905b8154815290600101906020018083116101ab57829003601f168201915b50505050508282815181106101d957fe5b60200260200101819052508080600101915050610109565b508091505090565b600081600081511161020a57600080fd5b600080905060008090505b84518110156102d257600085828151811061022c57fe5b60200260200101516000015160405160200161024891906108fc565b60405160208183030381529060405280519060200120141580156102835750600085828151811061027557fe5b602002602001015160200151115b156102c5576102c085828151811061029757fe5b6020026020010151600001518683815181106102af57fe5b602002602001015160200151610395565b820191505b8080600101915050610215565b508092505050919050565b600082826000826040516020016102f49190610913565b60405160208183030381529060405280519060200120141580156103185750600081115b61032157600080fd5b600060405180604001604052808781526020018681525090806001815401808255809150509060018203906000526020600020906002020160009091929091909150600082015181600001908051906020019061037f92919061045d565b5060208201518160010155505050505092915050565b600080600090505b60008054905081101561045157836040516020016103bb9190610913565b60405160208183030381529060405280519060200120600082815481106103de57fe5b90600052602060002090600202016000016040516020016103ff919061092a565b60405160208183030381529060405280519060200120141561044457826000828154811061042957fe5b90600052602060002090600202016001015402915050610457565b808060010191505061039d565b50600090505b92915050565b828054600181600116156101000203166002900490600052602060002090601f016020900481019282601f1061049e57805160ff19168380011785556104cc565b828001600101855582156104cc579182015b828111156104cb5782518255916020019190600101906104b0565b5b5090506104d991906104dd565b5090565b6104ff91905b808211156104fb5760008160009055506001016104e3565b5090565b90565b600082601f83011261051357600080fd5b8135610526610521826109c6565b610999565b9150818183526020840193506020810190508360005b8381101561056c5781358601610552888261061e565b84526020840193506020830192505060018101905061053c565b5050505092915050565b600082601f83011261058757600080fd5b813561059a610595826109ee565b610999565b915080825260208301602083018583830111156105b657600080fd5b6105c1838284610adc565b50505092915050565b600082601f8301126105db57600080fd5b81356105ee6105e982610a1a565b610999565b9150808252602083016020830185838301111561060a57600080fd5b610615838284610adc565b50505092915050565b60006040828403121561063057600080fd5b61063a6040610999565b9050600082013567ffffffffffffffff81111561065657600080fd5b61066284828501610576565b600083015250602061067684828501610682565b60208301525092915050565b60008135905061069181610b2f565b92915050565b6000602082840312156106a957600080fd5b600082013567ffffffffffffffff8111156106c357600080fd5b6106cf84828501610502565b91505092915050565b600080604083850312156106eb57600080fd5b600083013567ffffffffffffffff81111561070557600080fd5b610711858286016105ca565b925050602061072285828601610682565b9150509250929050565b600061073883836107f5565b905092915050565b600061074b82610a6b565b6107558185610a99565b93508360208202850161076785610a46565b8060005b858110156107a35784840389528151610784858261072c565b945061078f83610a8c565b925060208a0199505060018101905061076b565b50829750879550505050505092915050565b6107be81610ac6565b82525050565b60006107cf82610a81565b6107d98185610abb565b93506107e9818560208601610aeb565b80840191505092915050565b600061080082610a76565b61080a8185610aaa565b935061081a818560208601610aeb565b61082381610b1e565b840191505092915050565b600061083982610a76565b6108438185610abb565b9350610853818560208601610aeb565b80840191505092915050565b60008154600181166000811461087c57600181146108a1576108e5565b607f600283041661088d8187610abb565b955060ff19831686528086019350506108e5565b600282046108af8187610abb565b95506108ba85610a56565b60005b828110156108dc578154818901526001820191506020810190506108bd565b82880195505050505b505092915050565b6108f681610ad2565b82525050565b6000610908828461082e565b915081905092915050565b600061091f82846107c4565b915081905092915050565b6000610936828461085f565b915081905092915050565b6000602082019050818103600083015261095b8184610740565b905092915050565b600060208201905061097860008301846107b5565b92915050565b600060208201905061099360008301846108ed565b92915050565b6000604051905081810181811067ffffffffffffffff821117156109bc57600080fd5b8060405250919050565b600067ffffffffffffffff8211156109dd57600080fd5b602082029050602081019050919050565b600067ffffffffffffffff821115610a0557600080fd5b601f19601f8301169050602081019050919050565b600067ffffffffffffffff821115610a3157600080fd5b601f19601f8301169050602081019050919050565b6000819050602082019050919050565b60008190508160005260206000209050919050565b600081519050919050565b600081519050919050565b600081519050919050565b6000602082019050919050565b600082825260208201905092915050565b600082825260208201905092915050565b600081905092915050565b60008115159050919050565b6000819050919050565b82818337600083830152505050565b60005b83811015610b09578082015181840152602081019050610aee565b83811115610b18576000848401525b50505050565b6000601f19601f8301169050919050565b610b3881610ad2565b8114610b4357600080fd5b5056fea365627a7a72315820e4bf5f11b316ce9b1d741cfe101ee1bf4cafff716571d79a34437415183212606c6578706572696d656e74616cf564736f6c63430005100040",
  "source": "pragma solidity ^0.5.16;\npragma experimental ABIEncoderV2;\n\ncontract LoadsCalc {\n    struct Appliance {\n        string name;\n        uint256 load;\n    }\n\n    struct AppQty {\n        string name;\n        uint256 qty;\n    }\n\n    Appliance[] appliances;\n\n    constructor() public {\n        appliances.push(Appliance(\"Electric Stove\", 2500));\n        appliances.push(Appliance(\"Microwave\", 2500));\n        appliances.push(Appliance(\"Boiler\", 2500));\n        appliances.push(Appliance(\"Electric Heater 30-50 liters\", 2500));\n        appliances.push(Appliance(\"Electric Heater 10-25 liters\", 1500));\n        appliances.push(Appliance(\"Dishwasher\", 2000));\n        appliances.push(Appliance(\"Mini Dishwasher\", 1000));\n        appliances.push(Appliance(\"Full Automatic Washing Machine\", 2500));\n        appliances.push(Appliance(\"Half Automatic Washing Machine\", 1250));\n        appliances.push(Appliance(\"Fan\", 500));\n        appliances.push(Appliance(\"Refrigerator +14 feet\", 2000));\n        appliances.push(Appliance(\"Refrigerator 12-14 feet\", 1500));\n        appliances.push(Appliance(\"Refrigerator 8-10 feet\", 1000));\n    }\n\n    modifier appsLength(AppQty[] memory _appliances) {\n        require(_appliances.length > 0);\n        _;\n    }\n\n    modifier checkApp(string memory _name, uint256 _load) {\n        require(keccak256(abi.encodePacked(_name)) != \"\" && _load > 0);\n        _;\n    }\n\n    function getAppLoad(string memory _appliance, uint256 _qty)\n        private\n        view\n        returns (uint256)\n    {\n        for (uint256 i = 0; i < appliances.length; i++) {\n            if (\n                keccak256(abi.encodePacked(appliances[i].name)) ==\n                keccak256(abi.encodePacked(_appliance))\n            ) {\n                return appliances[i].load * _qty;\n            }\n        }\n\n        return 0;\n    }\n\n    function getAppNames() external view returns (string[] memory) {\n        string[] memory appNames = new string[](appliances.length);\n\n        for (uint256 i = 0; i < appliances.length; i++) {\n            appNames[i] = appliances[i].name;\n        }\n\n        return appNames;\n    }\n\n    function calcAppLoads(AppQty[] memory _appliances)\n        public\n        view\n        appsLength(_appliances)\n        returns (uint256)\n    {\n        uint256 totalLoads = 0;\n\n        for (uint256 i = 0; i < _appliances.length; i++) {\n            if (\n                keccak256(abi.encodePacked(_appliances[i].name)) != \"\" &&\n                _appliances[i].qty > 0\n            ) {\n                totalLoads += getAppLoad(\n                    _appliances[i].name,\n                    _appliances[i].qty\n                );\n            }\n        }\n\n        return totalLoads;\n    }\n\n    function addAppliance(string memory _name, uint256 _load)\n        public\n        checkApp(_name, _load)\n        returns (bool)\n    {\n        appliances.push(Appliance(_name, _load));\n    }\n}\n",
  "sourcePath": "/home/pc/Downloads/loads_calc/contracts/LoadsCalc.sol",
  "compiler": {
    "name": "solc",
    "version": "0.5.16+commit.9c3226ce.Emscripten.clang"
  },
  "schemaVersion": "3.2.1",
  "updatedAt": "2020-07-05T19:48:44.414Z",
  "networkType": "ethereum",
  "devdoc": {
    "methods": {}
  },
  "userdoc": {
    "methods": {}
  }
}